:1000000018C032C031C030C02FC02EC020CA2CC092
:100010002BC02AC029C05AC082C026C025C024C017
:1000200023C022C021C01F1C1F1E1F1E1F1F1E1FFA
:100030001E1F11241FBECFE5D4E0DEBFCDBF10E0F0
:10004000A0E6B0E0EAE8F8E102C005900D92A6371C
:10005000B107D9F720E0A6E7B0E001C01D92A03CAF
:10006000B207E1F74FDA0FCCCBCFBA9ABB9ABD9A61
:10007000C49A089588E731973197319700008A959F
:10008000D1F7089502D0C29801C0C29A8FEF98E0CC
:1000900087FDC39A87FFC398880FB4998395C59A43
:1000A000C5989A95A9F70895982F92959F702AEF71
:1000B000929F800D11240895282F6AE052DB982F1B
:1000C000990F980F990F892F820F08951F920F9201
:1000D0000FB60F9211242F938F939F93EF93FF935B
:1000E0008BB19CB18871E0917800EF5FEF71209146
:1000F0007700E21739F0E0937800F0E0E558FF4F21
:10010000908301C082E080937600FF91EF919F91F0
:100110008F912F910F900FBE0F901F9018951F92E7
:100120000F920FB60F9211248F939F93EF93FF932B
:1001300090917A0080917900981761F0E0917900B0
:10014000EF5FEF71E0937900F0E0E556FF4F8081BB
:100150008CB901C05598FF91EF919F918F910F90AD
:100160000FBE0F901F90189510927A001092790090
:10017000109278001092770097FF03C022E02BB90D
:100180009F7790BD89B988E98AB986E880BD0895CE
:100190009091780080917700981789F0E09177002E
:1001A000EF5FEF71E0937700F0E0E558FF4F80815B
:1001B00090917600392F20E0280F311D02C020E0F9
:1001C00031E0C901089590917A009F5F9F7120915D
:1001D00079009217E1F3E92FF0E0E556FF4F8083B5
:1001E00090937A00559A0895CF93DF93EC0101C064
:1001F000EADF89918111FCCFDF91CF910895CF93F0
:10020000DF93EC0101C0DFDFFE01219684918111B3
:10021000FACFDF91CF910895FF920F931F93CF9361
:10022000DF93C82FD42F152F062FF72E87FF08C076
:1002300040E050E0BA0187E7EFDF8230F8F4CF7793
:10024000C29A24DFC29822DF8C2F21DF8F2D1FDF7F
:10025000802F1DDF812F1BDF8D2F19DFC03421F090
:10026000C83421F081E003C085E901C087E80FDFD1
:10027000CAE00CDF87FF02C0C150D9F7DF91CF91F0
:100280001F910F91FF900895CF92DF92EF92FF920E
:100290000F931F93CF93DF937C01E9018091BB0003
:1002A00083FD07C029E0440F551F661F771F2A955D
:1002B000D1F781E5B1DF882311F0C1E02BC090E4D4
:1002C000C92E9CE9D92EE2DE8F3F29F481E0C81ABD
:1002D000D108C9F7F2CF8E3F81F782E0C82EDC2C1F
:1002E000CC1ADD0AC01AD10A209721F4E114F104D6
:1002F00021F40AC0CBDE2197F7CFC8DEF701819346
:100300007F0101501109C9F7C1DEF1E0CF1AD10810
:10031000D9F7C0E0C29ABADE8C2FDF91CF911F913E
:100320000F91FF90EF90DF90CF9008950F931F9360
:10033000CF93DF930097D9F08A01EC01080F191FC2
:100340000BC08991A4DE8091BC009091BD00019703
:100350009093BD008093BC00C017D10709F44AC038
:100360008091BC009091BD00892B59F743C0411585
:10037000510561057105D1F08091BB0083FD07C077
:1003800039E0440F551F661F771F3A95D1F788E56E
:1003900043DF811131C08FEF7ADE8EEF78DE80E0AF
:1003A00092E09093BD008093BC0024C0C091BC003B
:1003B000D091BD0003C080E06ADE2197CE3F8FEF71
:1003C000D807C9F763DE8F71853029F011E00FC0BF
:1003D00051DE219702C0C8E8D3E158DE8F3F19F003
:1003E0002097B1F7F3CF11E0CD2B09F010E0C29ABE
:1003F0004DDE03C010E001C011E0812FDF91CF91ED
:100400001F910F910895CF92DF92EF92FF920F9379
:100410001F93CF93DF9300D000D0CDB7DEB780918C
:10042000BB00882341F0C29906C040E050E0BA0109
:1004300080E090E07BDF19DEC29A1AE027DE1150DF
:10044000E9F740E050E0BA0180E4E6DE813009F0EF
:1004500062C04AEA51E060E070E088E4DDDE8130AD
:10046000C1F58E010F5F1F4F6E0185E0C80ED11CD4
:1004700078010CDEF70181937F01EC15FD05C9F7CA
:100480008B81813009F047C08C818A3A09F043C0E2
:1004900006C0F0DDF1E0EF1AF10829F43CC0F0E10C
:1004A000EF2EF7E2FF2E40E050E060E070E489EECE
:1004B000B3DE8111EECF39C0E9DDF80181938F0100
:1004C000EC15FD05C9F7898186FF22C0ECE0FE2E00
:1004D00023C040E050E0BA0189EE9EDE823028F46D
:1004E00062E0F62E79EEE72E04C0FF24F39451E487
:1004F000E52E00E117E204C0BDDD0150110959F0FD
:1005000040E050E0BA018E2D87DE8111F5CF16C094
:1005100044E0F42E01C0F12CF092BB00C29AB6DD8B
:1005200081E0FF20A1F080E012C040E050E0BA017D
:100530008AE772DE882309F4BFCFEDCF40E052E0B6
:1005400060E070E080E568DE8111E5CFE5CF0F90D7
:100550000F900F900F90DF91CF911F910F91FF900F
:10056000EF90DF90CF9008950F931F93E091BE001E
:10057000F091BF009C0122503109468157814250C1
:1005800051092417350770F4A281B0E02CD98B01F2
:100590009C0180899189A289B389080F191F2A1F9C
:1005A0003B1F03C000E010E09801B801C9011F9192
:1005B0000F910895CF93DF93EC01E091BE00F0918D
:1005C000BF00198218828C819D8181309105A9F02C
:1005D000268137818217930780F49F838E8300974B
:1005E00011F0C2DF04C064857585868597856887AC
:1005F00079878A879B8780E001C081E0DF91CF9176
:1006000008950F931F93CF93DF9300D000D0CDB701
:10061000DEB7E091BE00F091BF008230910508F492
:1006200020C02681378182179307D8F42081223099
:10063000C1F49C013327220F331F892F992740854E
:10064000518562857385480F591F611D711D02E038
:1006500010E0CE01019618DE811103C029813A8194
:1006600002C021E030E0C9010F900F900F900F9071
:10067000DF91CF911F910F910895CF92DF92EF926A
:10068000FF920F931F93CF93DF93EC016A017B01DD
:1006900002E010E02EEF31E0F7DD811117C0888114
:1006A000998185359A4AA1F426E330E0B701A60185
:1006B000CE01EADD811108C081E02881398126342C
:1006C000314439F480E005C081E003C083E001C01B
:1006D00082E0DF91CF911F910F91FF90EF90DF901B
:1006E000CF9008954F925F926F927F92AF92BF9298
:1006F000CF92DF92EF92FF920F931F93CF93DF93EE
:10070000CDB7DEB7A8970FB6F894DEBF0FBECDBF4A
:100710005C011092BF001092BE0075DE80FDA4C087
:1007200040E050E0BA01CE010196A7DF8130E9F444
:1007300000E110E02EEB31E040E050E0BA01CE01E4
:100740000196A2DD882311F081E0B0C08D81811176
:1007500002C086E0ABC049845A846B847C84B301B8
:10076000A201CE01019689DF03C0412C512C320138
:10077000833051F38111EDCF04E210E02DE030E041
:10078000B301A201CE0101967FDD8111DDCF2A8563
:100790003B8540E050E0211531054105510521F42C
:1007A000288D398D4A8D5B8DAC81B0E028D86DA342
:1007B0007EA38FA398A72A813B81890120E030E0A6
:1007C000400E511E621E731ED50118964D925D9209
:1007D0006D927C921B97E9811296EC931297CD80D3
:1007E000DE801596DC92CE9214976F817885CB01CE
:1007F000A0E0B0E00097A105B10521F48C899D89A6
:10080000AE89BF8964E0D694C7946A95E1F7E12C7C
:10081000F12CBC01CD01601B710B820B930B2DA140
:100820003EA14FA158A5621B730B840B950B6C194D
:100830007D098E099F092E2F30E040E050E0B1D7AE
:10084000DA01C9010296A11DB11DF50197838683C6
:10085000DA01C901865F9F40A109B1098F3F9F4E10
:10086000A105B10518F075CF82E020C082E0D50166
:100870008C932DA13EA14FA158A5420E531E641E7C
:10088000751E1C964D925D926D927C921F974C0C3A
:100890005D1C6E1C7F1CF501408A518A628A738A36
:1008A0001182B092BF00A092BE0080E0A8960FB661
:1008B000F894DEBF0FBECDBFDF91CF911F910F9196
:1008C000FF90EF90DF90CF90BF90AF907F906F90B0
:1008D0005F904F9008957F928F929F92AF92BF92B8
:1008E000CF92DF92EF92FF920F931F93CF93DF93FC
:1008F000CDB7DEB7E8970FB6F894DEBF0FBECDBF19
:10090000C090BE00D090BF00C114D10409F4F3C060
:10091000D60111961C929E012F5D3F4F38AB2FA739
:100920009C017901F90180812F5F3F4F8032C9F32B
:100930008F3209F479011AAA19AAD7018C91803251
:1009400040F4CE018D9636DE1982882309F4B5C0B5
:10095000E2C0F0E27F2E4E01BCE08B0E911CEFA5B1
:10096000F8A9CF010B96DF0101C07D92A817B90746
:10097000E1F780E020E038E0D701A20FB11D9C91A3
:100980002F5F913268F09F3259F09E3209F4B5C062
:10099000831730F4DF01A80FB11D9C938F5FECCF5C
:1009A000E20EF11C81E0913208F080E08387CE01F5
:1009B0008D9600DE8111AFC02DA53EA52F70332787
:1009C000E5E0220F331FEA95E1F74DA95EA96FA973
:1009D00078AD00E210E0CE01019656DC811198C09E
:1009E0008981882309F496C02C8523FD0FC06FA54B
:1009F00078A9FE013196CB01E815F90509F483C009
:100A00004191DC013D91CD014317B1F3A090BE00AF
:100A1000B090BF000DA51EA50F5F1F4F09F47AC04F
:100A20008DA99EA9AFA9B8AD0097A105B10509F49C
:100A300071C098012F703327232BA9F50196A11DB2
:100A4000B11D8DAB9EABAFABB8AF8BA99CA9009786
:100A500041F4F501848195810817190708F05AC0FF
:100A600022C0D50112962C9130E021503109A80105
:100A700074E0569547957A95E1F724233523232B87
:100A800091F4BFDD8230910508F442C0F501268162
:100A9000378182179307F0F59CAB8BAB65DD6DABAF
:100AA0007EAB8FAB98AF1EA70DA786CF24FF32C0B9
:100AB0008B8D9C8D9AAB89AB52CF8981882351F164
:100AC0008C8584FD27C08B8D9C8DD6015D969C9373
:100AD0008E935C978D8D9E8DAF8DB8A1F601808F22
:100AE000918FA28FB38F148A158A168A178A81E094
:100AF000818380E010C085E00EC0383009F050CF0F
:100B000088E03BE039CFFB018385882379F2D5CF9C
:100B100081E001C083E0E8960FB6F894DEBF0FBE17
:100B2000CDBFDF91CF911F910F91FF90EF90DF909C
:100B3000CF90BF90AF909F908F907F9008954F92ED
:100B40005F926F927F928F929F92AF92BF92CF925D
:100B5000DF92EF92FF920F931F93CF93DF934C019D
:100B60007B015A01C091BE00D091BF00FA011182F1
:100B70001082209709F49AC0898180FF99C0888DDE
:100B8000998DAA8DBB8D4C895D896E897F89841B67
:100B9000950BA60BB70BA70160E070E084179507D3
:100BA000A607B70708F47C013401412C02E0502E5F
:100BB00077C08C899D89AE89BF89AC01BD01517018
:100BC00066277727452B462B472B81F5AC01BD01C6
:100BD00019E076956795579547951A95D1F7DA807C
:100BE000DA94D42281F4892B8A2B8B2B19F48C8DE7
:100BF0009D8D03C08E8D9F8D04DD8230910508F49C
:100C000035C09F8F8E8F8E8D9F8DAEDC61157105E7
:100C10008105910509F42AC0DC01CB018D0D911DE0
:100C2000A11DB11D88A399A3AAA3BBA38C899D89EB
:100C3000AE89BF899170AA27BB279201281B390B67
:100C400067012E153F0508F4690148A159A16AA161
:100C50007BA18114910419F4E0E0F0E001C0F301FC
:100C600086019C01CF0110DB882319F0198281E0F5
:100C700020C08C899D89AE89BF898C0D9D1DA11DC9
:100C8000B11D8C8B9D8BAE8BBF8B6C0C7D1CEC18BF
:100C9000FD08F501808191818C0D9D1D91838083DC
:100CA000E114F10409F085CF80E003C085E001C0C4
:100CB00084E0DF91CF911F910F91FF90EF90DF9033
:100CC000CF90BF90AF909F908F907F906F905F90EC
:100CD0004F9008954F925F926F927F928F929F9262
:100CE000AF92BF92CF92DF92EF92FF920F931F933A
:100CF000CF93DF938B015A01C091BE00D091BF000A
:100D0000FA0111821082209709F4C6C0298120FFC0
:100D1000C5C020746115710571F4222341F040E0D3
:100D200050E0BA0180E090E001DB8111A9C0898127
:100D30008F7B8983AFC021110AC04C895D896E8980
:100D40007F8944275E7F4C8B5D8B6E8B7F8B488DBC
:100D5000598D6A8D7B8DCC88DD88EE88FF884C1993
:100D60005D096E097F096801E12CF12C4C155D05C8
:100D70006E057F0508F48A017C01812C32E0932EF8
:100D800085C08C899D89AE89BF89AC01BD01517038
:100D900066277727452BC1F5AC01BD0129E0769583
:100DA0006795579547952A95D1F7DA80DA94D4223A
:100DB00081F4892B8A2B8B2B19F48C8D9D8D03C08C
:100DC0008E8D9F8D1EDC8230910508F459C09F8F57
:100DD0008E8F8E8D9F8DC8DB611571058105910504
:100DE00009F44EC0AB01BC014D0D511D611D711DBB
:100DF00048A359A36AA37BA380E090E097DA81110E
:100E00003FC08981806489838C899D89AE89BF892F
:100E10009170AA27BB279401281B390B6801201762
:100E2000310708F469012601612C712CB301A2017C
:100E3000C7017CDA811124C08C899D89AE89BF8964
:100E4000840D951DA61DB71D8C8B9D8BAE8BBF8B06
:100E5000EC0CFD1C0C191D09F501208131812C0DB4
:100E60003D1D318320839170AA27BB27892B71F404
:100E700040E050E0BA0180E090E058DA882319F0B1
:100E8000198281E00CC089818F7B8983011511054E
:100E900009F077CF80E003C085E001C084E0DF91F6
:100EA000CF911F910F91FF90EF90DF90CF90BF9067
:100EB000AF909F908F907F906F905F904F9008952C
:100EC0004F925F926F927F928F929F92AF92BF925A
:100ED000CF92DF92EF92FF920F931F93CF93DF9306
:100EE00000D000D0CDB7DEB79B010091BE001091BD
:100EF000BF000115110509F4D2C0D80111964C911B
:100F0000119740FFCEC058964D915D916D917C91A7
:100F10005B9769017C014C155D056E057F0510F43A
:100F20006A017B01F8014488558866887788148AAD
:100F3000158A168A178AC114D104E104F10409F450
:100F4000B2C08280912CA12CB12C59E0880C991C44
:100F5000AA1CBB1C5A95D1F74114510461047104B9
:100F6000B9F1B1E04B1A510861087108C701B60127
:100F70006150710981099109A501940112D4298355
:100F80003A834B835C83C301B201A501940109D468
:100F900089819A81AB81BC8182179307A407B50729
:100FA000B8F088279927DC0188199909AA09BB0993
:100FB00084219521A621B721F801848B958BA68BDE
:100FC000B78BC81AD90AEA0AFB0A868D978D2BC0FF
:100FD000D8015C968D919C915D975F969C938E93C2
:100FE0005E9721C00EDB8230910530F0F80126813A
:100FF00037818217930720F0D80111961C922DC0DB
:10100000F801978F868F4489558966897789480DBD
:10101000591D6A1D7B1D448B558B668B778BC818B9
:10102000D908EA08FB088C149D04AE04BF04D0F272
:10103000F80184889588A688B7888C0C9D1CAE1C06
:10104000BF1C848A958AA68AB78A8EDA61157105D3
:101050008105910521F4F801118281E025C049E064
:10106000B694A794979487944A95D1F7D80112968D
:10107000CC90D12CB1E0CB1AD108EE24D7FCE0946F
:10108000FE2C8C209D20AE20BF20860E971EA81E11
:10109000B91EF80180A291A2A2A2B3A204C085E069
:1010A00003C084E001C080E00F900F900F900F907C
:1010B000DF91CF911F910F91FF90EF90DF90CF9034
:1010C000BF90AF909F908F907F906F905F904F9068
:1010D000089511B884E380B9089594EA96BF06B6DE
:1010E00007FEFDCF91B1987F983021F0903111F03B
:1010F00081E0089583B984E886BF06B607FEFDCF78
:1011000081B1887F883111F0803491F780E00895B3
:1011100024EA26BF06B607FEFDCF91B1987F98302E
:1011200011F09031B1F783B984E886BF06B607FEA7
:10113000FDCF81B10895D1CF84E986BF089583B9E9
:1011400084E886BF06B607FEFDCF91B1987F81E0A7
:10115000983209F480E0089584EC86BF06B607FE55
:10116000FDCF83B1089584E886BF06B607FEFDCFA4
:1011700083B10895AEDF88E28A95F1F7089550E0D3
:10118000E6E2F0E091E09E1B04C02491420F511D65
:101190003196292F2E0F2617C0F3633028F0982F91
:1011A000937011F44F5F5F4F282F30E06DE671E0D0
:1011B000269FC001279F900D369F900D1124059604
:1011C0002D5F3F4F3595279535952795820F931FB6
:1011D000840F951F67E070E0D0D20895CF92DF9220
:1011E000EF92FF920F931F93CF93DF931F92CDB790
:1011F000DEB7182FD62EC42E8BE38E15D0F10C330C
:10120000C0F52831B0F54423A1F1EFE1E41788F1EE
:10121000662379F1FCE0F61760F1143650F5E62FFD
:10122000F0E0EB5DFF4FE491E41728F1812F298373
:10123000A6DFF82E80ED6CDF80E081DF8E2D3CD7BD
:101240007EDF802F39D77BDF2981822F35D777DF6B
:101250008F2D32D774DF8C2D2FD771DF8D2D2CD7AA
:101260006EDF812F29D76BDF80E069DF65DF81E0EA
:1012700003C088E001C080E00F90DF91CF911F9103
:101280000F91FF90EF90DF90CF9008958F929F92F3
:10129000AF92BF92CF92DF92EF92FF920F931F9384
:1012A000CF93DF93EC016B015A01490180ED30DFF0
:1012B00080E045DF81ED3FDF4FDF8F77F5D6F70127
:1012C00080834ADFF1D6F801808346DFEDD6F40152
:1012D000808342DF41DFE8D6F50180833DDFE4D63D
:1012E000F601808340DFE0D68883DF91CF911F91A4
:1012F0000F91FF90EF90DF90CF90BF90AF909F90B5
:101300008F901ACFE6DE88E28A95F1F708951F9351
:10131000CF93DF9300D0CDB7DEB7182F80EA6A8372
:101320009983F6DE9981892F0ADF812F08DF6A8190
:10133000862F05DF01DF8FE295E70197F1F700C007
:1013400000000F900F90DF91CF911F910895EF92C1
:10135000FF921F93CF93DF931F92CDB7DEB7182F65
:101360007B0180EA9983D4DE9981892FE8DE812F81
:10137000E6DE81EACDDEF7DEF7018083DDDE8FE297
:1013800095E70197F1F700C000000F90DF91CF9132
:101390001F91FF90EF9008950F931F93CF93DF93CA
:1013A00000D01F92CDB7DEB7182F80EA6A837B8307
:1013B0009983AEDE9981892FC2DE812FC0DE6A81DA
:1013C000062F7B81172F01C0BADEF80181918F01B2
:1013D0008111FACF0F900F900F90DF91CF911F9155
:1013E0000F91AACEEF92FF921F93CF93DF931F929C
:1013F000CDB7DEB7182F7B0180EA998389DE99810A
:10140000892F9DDE812F9BDE81EA82DE1AE0A4DE39
:10141000F70182871150D9F70F90DF91CF911F917B
:10142000FF90EF90089589B78E7F89BF87EE93E094
:101430009BBD8ABD8EB588608EBD89B7806189BF2E
:101440008EB582608EBD89B7816089BF08951F9275
:101450000F920FB60F9211248F939F9388B392E04F
:10146000892788BB9F918F910F900FBE0F901F907F
:101470001895AF92BF92CF92DF92EF92FF920F93A7
:101480001F93CF93DF93B82EA12C82D6C92FC69578
:10149000C695C69520E0D22F21E030E02C273D27CD
:1014A000092F10E041E050E04027512741704223CE
:1014B000E92EE694E694F12C21E030E02E253F253C
:1014C000422349F0C92EC694D12C21E030E02C25CE
:1014D0003D2520FD09C081E38B1528F08A2D8A95D2
:1014E000F1F7B394D2CF80E0DF91CF911F910F91AC
:1014F000FF90EF90DF90CF90BF90AF90089580E085
:10150000B8CF61C6CF93DF93CDB7DEB7A0970FB644
:10151000F894DEBF0FBECDBF8FEF87BB88BB18A28C
:101520001F8E1E8E1D8E1C8E1B8E1A8E14BE88E181
:101530000FB6F89481BD11BC0FBE8DE490E014D6B7
:10154000789471DF80E690E04FD614DEDBDE2EE08B
:1015500088E190E00FB6F894A89581BD0FBE21BD3B
:1015600094E1B92ECC24C394D12CCC0EDD1EA895C9
:101570000FD68337B1F481E226D6C1DF88A3BFDF5F
:101580008F8FBDDF8E8FBBDF8D8FB9DF8C8FB7DF85
:101590008B8FE82E0C8D2D8D4E8D6F8D88A11EDECC
:1015A000D9C0873609F095C081E20DD68BE1E82ECF
:1015B000F12CEC0EFD1E8E01045E1F4F9E01235E7A
:1015C0003F4FAE01425E5F4FBE01615E7F4FCE0175
:1015D00080965CDE8FE295E70197F1F700C000008E
:1015E00068A180E090E093DE6F8D81E090E08FDE77
:1015F0006E8D82E090E08BDEF6018B2D11928A9544
:10160000E9F74AE050E0BE016B5E7F4F8E8D90E0BF
:101610000BD1BE016B5E7F4FC601FBD06FE670E061
:10162000C601F7D04AE050E0BE016B5E7F4F8F8D60
:1016300090E0FAD0BE016B5E7F4FC601EAD06FE644
:1016400070E0C601E6D04AE050E0BE016B5E7F4F1D
:1016500088A190E0E9D0BE016B5E7F4FC601D9D072
:1016600061E770E0C601D5D04AE050E0BE016B5E94
:101670007F4F8D8D90E0D8D0BE016B5E7F4FC6014D
:10168000C8D063E770E0C601C4D04AE050E0BE01B4
:101690006B5E7F4F8C8D90E0C7D0BE016B5E7F4F3D
:1016A000C601B7D063E770E0C601B3D04AE050E0AE
:1016B000BE016B5E7F4F8B8D90E0B6D0BE016B5E3E
:1016C0007F4FC601A6D06CE670E0C601A2D0C6016D
:1016D00040C08F3621F481E276D5C39A3BC0833671
:1016E00021F481E270D5C39835C08C3619F481E2BB
:1016F0006AD530C08136D9F38436C9F38536B9F35B
:101700008637A9F3843731F581E25DD58CE690E028
:101710006BD5BE01665E7F4F80E090E018DE8A8D5B
:1017200052D58CE690E060D5BE01665E7F4F81E0C9
:1017300090E00DDE8A8D47D58CE690E055D5BE0150
:10174000665E7F4F82E090E002DE8A8D3CD58CE6BB
:1017500090E04AD5EFE2F5E73197F1F700C00000DD
:1017600006CF991B79E004C0991F961708F0961BC5
:10177000881F7A95C9F780950895AA1BBB1B51E174
:1017800007C0AA1FBB1FA617B70710F0A61BB70BF1
:10179000881F991F5A95A9F780959095BC01CD0196
:1017A0000895A1E21A2EAA1BBB1BFD010DC0AA1FA2
:1017B000BB1FEE1FFF1FA217B307E407F50720F0BA
:1017C000A21BB30BE40BF50B661F771F881F991F35
:1017D0001A9469F760957095809590959B01AC017E
:1017E000BD01CF010895A29FB001B39FC001A39F87
:1017F00001D0B29F700D811D1124911D0895F3DF5A
:10180000A59F900DB49F900DA49F800D911D112454
:101810000895FB01DC010D900020E9F7119701907C
:101820000D920020E1F70895FB019F01E8944230FA
:10183000BCF04532ACF44A3029F497FB1EF4909585
:1018400081959F4F642F772798DF805D8A330CF056
:10185000895D8193CB010097A9F716F45DE251935E
:101860001082C90100C0DC01FC01672F7191772350
:10187000E1F7329704C07C916D9370836291AE174B
:0A188000BF07C8F30895F894FFCFE6
:10188A00696E696369616E646F2E2E2E0D0A002FD0
:06189A000020003A0000EE
:00000001FF
